{
  "_format": "hh-sol-artifact-1",
  "contractName": "NFTMarket",
  "sourceName": "contracts/NFTMarket.sol",
  "abi": [
    {
      "inputs": [],
      "stateMutability": "nonpayable",
      "type": "constructor"
    },
    {
      "inputs": [],
      "name": "ReentrancyGuardReentrantCall",
      "type": "error"
    },
    {
      "anonymous": false,
      "inputs": [
        {
          "indexed": true,
          "internalType": "uint256",
          "name": "itemId",
          "type": "uint256"
        },
        {
          "indexed": true,
          "internalType": "address",
          "name": "nftContract",
          "type": "address"
        },
        {
          "indexed": true,
          "internalType": "uint256",
          "name": "tokenId",
          "type": "uint256"
        },
        {
          "indexed": false,
          "internalType": "address",
          "name": "seller",
          "type": "address"
        },
        {
          "indexed": false,
          "internalType": "address",
          "name": "owner",
          "type": "address"
        },
        {
          "indexed": false,
          "internalType": "uint256",
          "name": "price",
          "type": "uint256"
        },
        {
          "indexed": false,
          "internalType": "bool",
          "name": "sold",
          "type": "bool"
        }
      ],
      "name": "MarketItemCreated",
      "type": "event"
    },
    {
      "inputs": [
        {
          "internalType": "address",
          "name": "nftContract",
          "type": "address"
        },
        {
          "internalType": "uint256",
          "name": "tokenId",
          "type": "uint256"
        },
        {
          "internalType": "uint256",
          "name": "price",
          "type": "uint256"
        }
      ],
      "name": "createMarketItem",
      "outputs": [],
      "stateMutability": "payable",
      "type": "function"
    },
    {
      "inputs": [
        {
          "internalType": "address",
          "name": "nftContract",
          "type": "address"
        },
        {
          "internalType": "uint256",
          "name": "itemId",
          "type": "uint256"
        }
      ],
      "name": "createMarketSale",
      "outputs": [],
      "stateMutability": "payable",
      "type": "function"
    },
    {
      "inputs": [
        {
          "internalType": "address",
          "name": "userAddress",
          "type": "address"
        }
      ],
      "name": "fetchItemsCreated",
      "outputs": [
        {
          "components": [
            {
              "internalType": "uint256",
              "name": "itemId",
              "type": "uint256"
            },
            {
              "internalType": "address",
              "name": "nftContract",
              "type": "address"
            },
            {
              "internalType": "uint256",
              "name": "tokenId",
              "type": "uint256"
            },
            {
              "internalType": "address payable",
              "name": "seller",
              "type": "address"
            },
            {
              "internalType": "address payable",
              "name": "owner",
              "type": "address"
            },
            {
              "internalType": "uint256",
              "name": "price",
              "type": "uint256"
            },
            {
              "internalType": "bool",
              "name": "sold",
              "type": "bool"
            }
          ],
          "internalType": "struct NFTMarket.MarketItems[]",
          "name": "",
          "type": "tuple[]"
        }
      ],
      "stateMutability": "view",
      "type": "function"
    },
    {
      "inputs": [],
      "name": "fetchMarketItems",
      "outputs": [
        {
          "components": [
            {
              "internalType": "uint256",
              "name": "itemId",
              "type": "uint256"
            },
            {
              "internalType": "address",
              "name": "nftContract",
              "type": "address"
            },
            {
              "internalType": "uint256",
              "name": "tokenId",
              "type": "uint256"
            },
            {
              "internalType": "address payable",
              "name": "seller",
              "type": "address"
            },
            {
              "internalType": "address payable",
              "name": "owner",
              "type": "address"
            },
            {
              "internalType": "uint256",
              "name": "price",
              "type": "uint256"
            },
            {
              "internalType": "bool",
              "name": "sold",
              "type": "bool"
            }
          ],
          "internalType": "struct NFTMarket.MarketItems[]",
          "name": "",
          "type": "tuple[]"
        }
      ],
      "stateMutability": "view",
      "type": "function"
    },
    {
      "inputs": [
        {
          "internalType": "address",
          "name": "userAddress",
          "type": "address"
        }
      ],
      "name": "fetchMyNFTs",
      "outputs": [
        {
          "components": [
            {
              "internalType": "uint256",
              "name": "itemId",
              "type": "uint256"
            },
            {
              "internalType": "address",
              "name": "nftContract",
              "type": "address"
            },
            {
              "internalType": "uint256",
              "name": "tokenId",
              "type": "uint256"
            },
            {
              "internalType": "address payable",
              "name": "seller",
              "type": "address"
            },
            {
              "internalType": "address payable",
              "name": "owner",
              "type": "address"
            },
            {
              "internalType": "uint256",
              "name": "price",
              "type": "uint256"
            },
            {
              "internalType": "bool",
              "name": "sold",
              "type": "bool"
            }
          ],
          "internalType": "struct NFTMarket.MarketItems[]",
          "name": "",
          "type": "tuple[]"
        }
      ],
      "stateMutability": "view",
      "type": "function"
    },
    {
      "inputs": [],
      "name": "getListingPrice",
      "outputs": [
        {
          "internalType": "uint256",
          "name": "",
          "type": "uint256"
        }
      ],
      "stateMutability": "view",
      "type": "function"
    },
    {
      "inputs": [
        {
          "internalType": "uint256",
          "name": "",
          "type": "uint256"
        }
      ],
      "name": "idToMarketItem",
      "outputs": [
        {
          "internalType": "uint256",
          "name": "itemId",
          "type": "uint256"
        },
        {
          "internalType": "address",
          "name": "nftContract",
          "type": "address"
        },
        {
          "internalType": "uint256",
          "name": "tokenId",
          "type": "uint256"
        },
        {
          "internalType": "address payable",
          "name": "seller",
          "type": "address"
        },
        {
          "internalType": "address payable",
          "name": "owner",
          "type": "address"
        },
        {
          "internalType": "uint256",
          "name": "price",
          "type": "uint256"
        },
        {
          "internalType": "bool",
          "name": "sold",
          "type": "bool"
        }
      ],
      "stateMutability": "view",
      "type": "function"
    }
  ],
  "bytecode": "0x60806040526658d15e17628000600455348015601a57600080fd5b50600160008190555033600360006101000a81548173ffffffffffffffffffffffffffffffffffffffff021916908373ffffffffffffffffffffffffffffffffffffffff1602179055506119fb806100736000396000f3fe6080604052600436106100705760003560e01c806358eb2df51161004e57806358eb2df514610108578063c23b139e14610124578063c833845614610140578063e61a70c01461017d57610070565b80630f08efe01461007557806310afee1e146100a057806312e85585146100dd575b600080fd5b34801561008157600080fd5b5061008a6101c0565b6040516100979190611413565b60405180910390f35b3480156100ac57600080fd5b506100c760048036038101906100c29190611466565b610484565b6040516100d49190611413565b60405180910390f35b3480156100e957600080fd5b506100f26107d5565b6040516100ff91906114a2565b60405180910390f35b610122600480360381019061011d91906114e9565b6107df565b005b61013e6004803603810190610139919061153c565b610b04565b005b34801561014c57600080fd5b5061016760048036038101906101629190611466565b610d85565b6040516101749190611413565b60405180910390f35b34801561018957600080fd5b506101a4600480360381019061019f919061157c565b6110c0565b6040516101b797969594939291906115d6565b60405180910390f35b60606000600154905060006002546001546101db9190611674565b90506000808267ffffffffffffffff8111156101fa576101f96116a8565b5b60405190808252806020026020018201604052801561023357816020015b6102206111bf565b8152602001906001900390816102185790505b50905060005b8481101561047957600073ffffffffffffffffffffffffffffffffffffffff166005600060018461026a91906116d7565b815260200190815260200160002060040160009054906101000a900473ffffffffffffffffffffffffffffffffffffffff1673ffffffffffffffffffffffffffffffffffffffff160361046c576000600560006001846102ca91906116d7565b81526020019081526020016000206000015490506000600560008381526020019081526020016000209050806040518060e0016040529081600082015481526020016001820160009054906101000a900473ffffffffffffffffffffffffffffffffffffffff1673ffffffffffffffffffffffffffffffffffffffff1673ffffffffffffffffffffffffffffffffffffffff168152602001600282015481526020016003820160009054906101000a900473ffffffffffffffffffffffffffffffffffffffff1673ffffffffffffffffffffffffffffffffffffffff1673ffffffffffffffffffffffffffffffffffffffff1681526020016004820160009054906101000a900473ffffffffffffffffffffffffffffffffffffffff1673ffffffffffffffffffffffffffffffffffffffff1673ffffffffffffffffffffffffffffffffffffffff168152602001600582015481526020016006820160009054906101000a900460ff16151515158152505084868151811061044f5761044e61170b565b5b602002602001018190525060018561046791906116d7565b945050505b8080600101915050610239565b508094505050505090565b60606000600154905060008060005b8381101561052d578573ffffffffffffffffffffffffffffffffffffffff16600560006001846104c391906116d7565b815260200190815260200160002060040160009054906101000a900473ffffffffffffffffffffffffffffffffffffffff1673ffffffffffffffffffffffffffffffffffffffff16036105205760018361051d91906116d7565b92505b8080600101915050610493565b5060008267ffffffffffffffff81111561054a576105496116a8565b5b60405190808252806020026020018201604052801561058357816020015b6105706111bf565b8152602001906001900390816105685790505b50905060005b848110156107c8578673ffffffffffffffffffffffffffffffffffffffff16600560006001846105b991906116d7565b815260200190815260200160002060040160009054906101000a900473ffffffffffffffffffffffffffffffffffffffff1673ffffffffffffffffffffffffffffffffffffffff16036107bb5760006005600060018461061991906116d7565b81526020019081526020016000206000015490506000600560008381526020019081526020016000209050806040518060e0016040529081600082015481526020016001820160009054906101000a900473ffffffffffffffffffffffffffffffffffffffff1673ffffffffffffffffffffffffffffffffffffffff1673ffffffffffffffffffffffffffffffffffffffff168152602001600282015481526020016003820160009054906101000a900473ffffffffffffffffffffffffffffffffffffffff1673ffffffffffffffffffffffffffffffffffffffff1673ffffffffffffffffffffffffffffffffffffffff1681526020016004820160009054906101000a900473ffffffffffffffffffffffffffffffffffffffff1673ffffffffffffffffffffffffffffffffffffffff1673ffffffffffffffffffffffffffffffffffffffff168152602001600582015481526020016006820160009054906101000a900460ff16151515158152505084868151811061079e5761079d61170b565b5b60200260200101819052506001856107b691906116d7565b945050505b8080600101915050610589565b5080945050505050919050565b6000600454905090565b6107e761116f565b6000811161082a576040517f08c379a000000000000000000000000000000000000000000000000000000000815260040161082190611797565b60405180910390fd5b600454341461086e576040517f08c379a000000000000000000000000000000000000000000000000000000000815260040161086590611829565b60405180910390fd5b6001600081548092919061088190611849565b9190505550600060015490506040518060e001604052808281526020018573ffffffffffffffffffffffffffffffffffffffff1681526020018481526020013373ffffffffffffffffffffffffffffffffffffffff168152602001600073ffffffffffffffffffffffffffffffffffffffff16815260200183815260200160001515815250600560008381526020019081526020016000206000820151816000015560208201518160010160006101000a81548173ffffffffffffffffffffffffffffffffffffffff021916908373ffffffffffffffffffffffffffffffffffffffff1602179055506040820151816002015560608201518160030160006101000a81548173ffffffffffffffffffffffffffffffffffffffff021916908373ffffffffffffffffffffffffffffffffffffffff16021790555060808201518160040160006101000a81548173ffffffffffffffffffffffffffffffffffffffff021916908373ffffffffffffffffffffffffffffffffffffffff16021790555060a0820151816005015560c08201518160060160006101000a81548160ff0219169083151502179055509050508373ffffffffffffffffffffffffffffffffffffffff166323b872dd3330866040518463ffffffff1660e01b8152600401610a6c93929190611891565b600060405180830381600087803b158015610a8657600080fd5b505af1158015610a9a573d6000803e3d6000fd5b50505050828473ffffffffffffffffffffffffffffffffffffffff16827f045dfa01dcba2b36aba1d3dc4a874f4b0c5d2fbeb8d2c4b34a7d88c8d8f929d1336000876000604051610aee94939291906118c8565b60405180910390a450610aff6111b5565b505050565b610b0c61116f565b600060056000838152602001908152602001600020600501549050600060056000848152602001908152602001600020600201549050813414610b84576040517f08c379a0000000000000000000000000000000000000000000000000000000008152600401610b7b906119a5565b60405180910390fd5b6005600084815260200190815260200160002060030160009054906101000a900473ffffffffffffffffffffffffffffffffffffffff1673ffffffffffffffffffffffffffffffffffffffff166108fc349081150290604051600060405180830381858888f19350505050158015610c00573d6000803e3d6000fd5b508373ffffffffffffffffffffffffffffffffffffffff166323b872dd3033846040518463ffffffff1660e01b8152600401610c3e93929190611891565b600060405180830381600087803b158015610c5857600080fd5b505af1158015610c6c573d6000803e3d6000fd5b50505050336005600085815260200190815260200160002060040160006101000a81548173ffffffffffffffffffffffffffffffffffffffff021916908373ffffffffffffffffffffffffffffffffffffffff16021790555060016005600085815260200190815260200160002060060160006101000a81548160ff02191690831515021790555060026000815480929190610d0790611849565b9190505550600360009054906101000a900473ffffffffffffffffffffffffffffffffffffffff1673ffffffffffffffffffffffffffffffffffffffff166108fc6004549081150290604051600060405180830381858888f19350505050158015610d76573d6000803e3d6000fd5b505050610d816111b5565b5050565b60606000600154905060008060005b83811015610e2e578573ffffffffffffffffffffffffffffffffffffffff1660056000600184610dc491906116d7565b815260200190815260200160002060030160009054906101000a900473ffffffffffffffffffffffffffffffffffffffff1673ffffffffffffffffffffffffffffffffffffffff1603610e2157600183610e1e91906116d7565b92505b8080600101915050610d94565b5060008267ffffffffffffffff811115610e4b57610e4a6116a8565b5b604051908082528060200260200182016040528015610e8457816020015b610e716111bf565b815260200190600190039081610e695790505b50905060005b848110156110b3578673ffffffffffffffffffffffffffffffffffffffff1660056000600184610eba91906116d7565b815260200190815260200160002060030160009054906101000a900473ffffffffffffffffffffffffffffffffffffffff1673ffffffffffffffffffffffffffffffffffffffff16036110a6576000600182610f1691906116d7565b90506000600560008381526020019081526020016000209050806040518060e0016040529081600082015481526020016001820160009054906101000a900473ffffffffffffffffffffffffffffffffffffffff1673ffffffffffffffffffffffffffffffffffffffff1673ffffffffffffffffffffffffffffffffffffffff168152602001600282015481526020016003820160009054906101000a900473ffffffffffffffffffffffffffffffffffffffff1673ffffffffffffffffffffffffffffffffffffffff1673ffffffffffffffffffffffffffffffffffffffff1681526020016004820160009054906101000a900473ffffffffffffffffffffffffffffffffffffffff1673ffffffffffffffffffffffffffffffffffffffff1673ffffffffffffffffffffffffffffffffffffffff168152602001600582015481526020016006820160009054906101000a900460ff1615151515815250508486815181106110895761108861170b565b5b60200260200101819052506001856110a191906116d7565b945050505b8080600101915050610e8a565b5080945050505050919050565b60056020528060005260406000206000915090508060000154908060010160009054906101000a900473ffffffffffffffffffffffffffffffffffffffff16908060020154908060030160009054906101000a900473ffffffffffffffffffffffffffffffffffffffff16908060040160009054906101000a900473ffffffffffffffffffffffffffffffffffffffff16908060050154908060060160009054906101000a900460ff16905087565b6002600054036111ab576040517f3ee5aeb500000000000000000000000000000000000000000000000000000000815260040160405180910390fd5b6002600081905550565b6001600081905550565b6040518060e0016040528060008152602001600073ffffffffffffffffffffffffffffffffffffffff16815260200160008152602001600073ffffffffffffffffffffffffffffffffffffffff168152602001600073ffffffffffffffffffffffffffffffffffffffff168152602001600081526020016000151581525090565b600081519050919050565b600082825260208201905092915050565b6000819050602082019050919050565b6000819050919050565b61127f8161126c565b82525050565b600073ffffffffffffffffffffffffffffffffffffffff82169050919050565b60006112b082611285565b9050919050565b6112c0816112a5565b82525050565b60006112d182611285565b9050919050565b6112e1816112c6565b82525050565b60008115159050919050565b6112fc816112e7565b82525050565b60e0820160008201516113186000850182611276565b50602082015161132b60208501826112b7565b50604082015161133e6040850182611276565b50606082015161135160608501826112d8565b50608082015161136460808501826112d8565b5060a082015161137760a0850182611276565b5060c082015161138a60c08501826112f3565b50505050565b600061139c8383611302565b60e08301905092915050565b6000602082019050919050565b60006113c082611240565b6113ca818561124b565b93506113d58361125c565b8060005b838110156114065781516113ed8882611390565b97506113f8836113a8565b9250506001810190506113d9565b5085935050505092915050565b6000602082019050818103600083015261142d81846113b5565b905092915050565b600080fd5b611443816112a5565b811461144e57600080fd5b50565b6000813590506114608161143a565b92915050565b60006020828403121561147c5761147b611435565b5b600061148a84828501611451565b91505092915050565b61149c8161126c565b82525050565b60006020820190506114b76000830184611493565b92915050565b6114c68161126c565b81146114d157600080fd5b50565b6000813590506114e3816114bd565b92915050565b60008060006060848603121561150257611501611435565b5b600061151086828701611451565b9350506020611521868287016114d4565b9250506040611532868287016114d4565b9150509250925092565b6000806040838503121561155357611552611435565b5b600061156185828601611451565b9250506020611572858286016114d4565b9150509250929050565b60006020828403121561159257611591611435565b5b60006115a0848285016114d4565b91505092915050565b6115b2816112a5565b82525050565b6115c1816112c6565b82525050565b6115d0816112e7565b82525050565b600060e0820190506115eb600083018a611493565b6115f860208301896115a9565b6116056040830188611493565b61161260608301876115b8565b61161f60808301866115b8565b61162c60a0830185611493565b61163960c08301846115c7565b98975050505050505050565b7f4e487b7100000000000000000000000000000000000000000000000000000000600052601160045260246000fd5b600061167f8261126c565b915061168a8361126c565b92508282039050818111156116a2576116a1611645565b5b92915050565b7f4e487b7100000000000000000000000000000000000000000000000000000000600052604160045260246000fd5b60006116e28261126c565b91506116ed8361126c565b925082820190508082111561170557611704611645565b5b92915050565b7f4e487b7100000000000000000000000000000000000000000000000000000000600052603260045260246000fd5b600082825260208201905092915050565b7f5072696365206d757374206265206174206c6561737420312077656900000000600082015250565b6000611781601c8361173a565b915061178c8261174b565b602082019050919050565b600060208201905081810360008301526117b081611774565b9050919050565b7f5072696365206d75737420626520657175616c20746f206c697374696e67207060008201527f7269636500000000000000000000000000000000000000000000000000000000602082015250565b600061181360248361173a565b915061181e826117b7565b604082019050919050565b6000602082019050818103600083015261184281611806565b9050919050565b60006118548261126c565b91507fffffffffffffffffffffffffffffffffffffffffffffffffffffffffffffffff820361188657611885611645565b5b600182019050919050565b60006060820190506118a660008301866115a9565b6118b360208301856115a9565b6118c06040830184611493565b949350505050565b60006080820190506118dd60008301876115a9565b6118ea60208301866115a9565b6118f76040830185611493565b61190460608301846115c7565b95945050505050565b7f506c65617365207375626d6974207468652061736b696e67207072696365206960008201527f6e206f7264657220746f20636f6d706c6574652074686520707572636873652e60208201527f2100000000000000000000000000000000000000000000000000000000000000604082015250565b600061198f60418361173a565b915061199a8261190d565b606082019050919050565b600060208201905081810360008301526119be81611982565b905091905056fea26469706673582212200d36c75c87430f323f8be09642342347f28ebc82fbac290ff5866ee6a817597c64736f6c634300081c0033",
  "linkReferences": {},
  "deployedLinkReferences": {}
}